{
  "contractName": "TinToken",
  "abi": [
    {
      "inputs": [
        {
          "internalType": "uint256",
          "name": "initialSupply",
          "type": "uint256"
        }
      ],
      "stateMutability": "nonpayable",
      "type": "constructor"
    },
    {
      "anonymous": false,
      "inputs": [
        {
          "indexed": true,
          "internalType": "address",
          "name": "owner",
          "type": "address"
        },
        {
          "indexed": true,
          "internalType": "address",
          "name": "spender",
          "type": "address"
        },
        {
          "indexed": false,
          "internalType": "uint256",
          "name": "value",
          "type": "uint256"
        }
      ],
      "name": "Approval",
      "type": "event"
    },
    {
      "anonymous": false,
      "inputs": [
        {
          "indexed": false,
          "internalType": "uint256",
          "name": "amount",
          "type": "uint256"
        },
        {
          "indexed": false,
          "internalType": "address",
          "name": "receiver",
          "type": "address"
        }
      ],
      "name": "Bought",
      "type": "event"
    },
    {
      "anonymous": false,
      "inputs": [
        {
          "indexed": false,
          "internalType": "address",
          "name": "payer",
          "type": "address"
        },
        {
          "indexed": false,
          "internalType": "uint256",
          "name": "amount",
          "type": "uint256"
        },
        {
          "indexed": false,
          "internalType": "uint256",
          "name": "paymentId",
          "type": "uint256"
        },
        {
          "indexed": false,
          "internalType": "uint256",
          "name": "orderId",
          "type": "uint256"
        },
        {
          "indexed": false,
          "internalType": "uint256",
          "name": "date",
          "type": "uint256"
        }
      ],
      "name": "PaymentDone",
      "type": "event"
    },
    {
      "anonymous": false,
      "inputs": [
        {
          "indexed": false,
          "internalType": "uint256",
          "name": "orderID",
          "type": "uint256"
        },
        {
          "indexed": false,
          "internalType": "address",
          "name": "from",
          "type": "address"
        },
        {
          "indexed": false,
          "internalType": "address",
          "name": "to_",
          "type": "address"
        },
        {
          "indexed": false,
          "internalType": "string",
          "name": "IPFS_Hash",
          "type": "string"
        },
        {
          "indexed": false,
          "internalType": "string",
          "name": "Storage_link",
          "type": "string"
        },
        {
          "indexed": false,
          "internalType": "string",
          "name": "transaction_hash",
          "type": "string"
        },
        {
          "indexed": false,
          "internalType": "uint256",
          "name": "amount",
          "type": "uint256"
        }
      ],
      "name": "PaymentDoneToSeller",
      "type": "event"
    },
    {
      "anonymous": false,
      "inputs": [
        {
          "indexed": false,
          "internalType": "address",
          "name": "payer",
          "type": "address"
        },
        {
          "indexed": false,
          "internalType": "uint256",
          "name": "amount",
          "type": "uint256"
        },
        {
          "indexed": false,
          "internalType": "uint256",
          "name": "paymentId",
          "type": "uint256"
        },
        {
          "indexed": false,
          "internalType": "uint256",
          "name": "orderId",
          "type": "uint256"
        },
        {
          "indexed": false,
          "internalType": "uint256",
          "name": "date",
          "type": "uint256"
        }
      ],
      "name": "PaymentFailed",
      "type": "event"
    },
    {
      "anonymous": false,
      "inputs": [
        {
          "indexed": false,
          "internalType": "uint256",
          "name": "orderID",
          "type": "uint256"
        },
        {
          "indexed": false,
          "internalType": "address",
          "name": "from",
          "type": "address"
        },
        {
          "indexed": false,
          "internalType": "address",
          "name": "to_",
          "type": "address"
        },
        {
          "indexed": false,
          "internalType": "string",
          "name": "IPFS_Hash",
          "type": "string"
        },
        {
          "indexed": false,
          "internalType": "string",
          "name": "Storage_link",
          "type": "string"
        },
        {
          "indexed": false,
          "internalType": "string",
          "name": "transaction_hash",
          "type": "string"
        },
        {
          "indexed": false,
          "internalType": "uint256",
          "name": "amount",
          "type": "uint256"
        }
      ],
      "name": "PaymentFailedToSeller",
      "type": "event"
    },
    {
      "anonymous": false,
      "inputs": [
        {
          "indexed": false,
          "internalType": "uint256",
          "name": "amount",
          "type": "uint256"
        }
      ],
      "name": "Sold",
      "type": "event"
    },
    {
      "anonymous": false,
      "inputs": [
        {
          "indexed": true,
          "internalType": "address",
          "name": "from",
          "type": "address"
        },
        {
          "indexed": true,
          "internalType": "address",
          "name": "to",
          "type": "address"
        },
        {
          "indexed": false,
          "internalType": "uint256",
          "name": "value",
          "type": "uint256"
        }
      ],
      "name": "Transfer",
      "type": "event"
    },
    {
      "inputs": [
        {
          "internalType": "address",
          "name": "owner",
          "type": "address"
        },
        {
          "internalType": "address",
          "name": "spender",
          "type": "address"
        }
      ],
      "name": "allowance",
      "outputs": [
        {
          "internalType": "uint256",
          "name": "",
          "type": "uint256"
        }
      ],
      "stateMutability": "view",
      "type": "function",
      "constant": true
    },
    {
      "inputs": [
        {
          "internalType": "address",
          "name": "spender",
          "type": "address"
        },
        {
          "internalType": "uint256",
          "name": "amount",
          "type": "uint256"
        }
      ],
      "name": "approve",
      "outputs": [
        {
          "internalType": "bool",
          "name": "",
          "type": "bool"
        }
      ],
      "stateMutability": "nonpayable",
      "type": "function"
    },
    {
      "inputs": [
        {
          "internalType": "address",
          "name": "account",
          "type": "address"
        }
      ],
      "name": "balanceOf",
      "outputs": [
        {
          "internalType": "uint256",
          "name": "",
          "type": "uint256"
        }
      ],
      "stateMutability": "view",
      "type": "function",
      "constant": true
    },
    {
      "inputs": [],
      "name": "decimals",
      "outputs": [
        {
          "internalType": "uint8",
          "name": "",
          "type": "uint8"
        }
      ],
      "stateMutability": "view",
      "type": "function",
      "constant": true
    },
    {
      "inputs": [
        {
          "internalType": "address",
          "name": "spender",
          "type": "address"
        },
        {
          "internalType": "uint256",
          "name": "subtractedValue",
          "type": "uint256"
        }
      ],
      "name": "decreaseAllowance",
      "outputs": [
        {
          "internalType": "bool",
          "name": "",
          "type": "bool"
        }
      ],
      "stateMutability": "nonpayable",
      "type": "function"
    },
    {
      "inputs": [
        {
          "internalType": "address",
          "name": "spender",
          "type": "address"
        },
        {
          "internalType": "uint256",
          "name": "addedValue",
          "type": "uint256"
        }
      ],
      "name": "increaseAllowance",
      "outputs": [
        {
          "internalType": "bool",
          "name": "",
          "type": "bool"
        }
      ],
      "stateMutability": "nonpayable",
      "type": "function"
    },
    {
      "inputs": [],
      "name": "name",
      "outputs": [
        {
          "internalType": "string",
          "name": "",
          "type": "string"
        }
      ],
      "stateMutability": "view",
      "type": "function",
      "constant": true
    },
    {
      "inputs": [
        {
          "internalType": "uint256",
          "name": "",
          "type": "uint256"
        }
      ],
      "name": "orders",
      "outputs": [
        {
          "internalType": "uint256",
          "name": "orderID",
          "type": "uint256"
        },
        {
          "internalType": "address",
          "name": "from",
          "type": "address"
        },
        {
          "internalType": "address",
          "name": "to",
          "type": "address"
        },
        {
          "internalType": "string",
          "name": "IPFS_Hash",
          "type": "string"
        },
        {
          "internalType": "string",
          "name": "Storage_link",
          "type": "string"
        },
        {
          "internalType": "string",
          "name": "transaction_hash",
          "type": "string"
        },
        {
          "internalType": "uint256",
          "name": "amount",
          "type": "uint256"
        }
      ],
      "stateMutability": "view",
      "type": "function",
      "constant": true
    },
    {
      "inputs": [
        {
          "internalType": "uint256",
          "name": "",
          "type": "uint256"
        }
      ],
      "name": "ordersIndices",
      "outputs": [
        {
          "internalType": "uint256",
          "name": "",
          "type": "uint256"
        }
      ],
      "stateMutability": "view",
      "type": "function",
      "constant": true
    },
    {
      "inputs": [],
      "name": "symbol",
      "outputs": [
        {
          "internalType": "string",
          "name": "",
          "type": "string"
        }
      ],
      "stateMutability": "view",
      "type": "function",
      "constant": true
    },
    {
      "inputs": [],
      "name": "totalSupply",
      "outputs": [
        {
          "internalType": "uint256",
          "name": "",
          "type": "uint256"
        }
      ],
      "stateMutability": "view",
      "type": "function",
      "constant": true
    },
    {
      "inputs": [
        {
          "internalType": "address",
          "name": "to",
          "type": "address"
        },
        {
          "internalType": "uint256",
          "name": "amount",
          "type": "uint256"
        }
      ],
      "name": "transfer",
      "outputs": [
        {
          "internalType": "bool",
          "name": "",
          "type": "bool"
        }
      ],
      "stateMutability": "nonpayable",
      "type": "function"
    },
    {
      "inputs": [
        {
          "internalType": "address",
          "name": "from",
          "type": "address"
        },
        {
          "internalType": "address",
          "name": "to",
          "type": "address"
        },
        {
          "internalType": "uint256",
          "name": "amount",
          "type": "uint256"
        }
      ],
      "name": "transferFrom",
      "outputs": [
        {
          "internalType": "bool",
          "name": "",
          "type": "bool"
        }
      ],
      "stateMutability": "nonpayable",
      "type": "function"
    },
    {
      "stateMutability": "payable",
      "type": "receive",
      "payable": true
    },
    {
      "inputs": [
        {
          "internalType": "uint256",
          "name": "newTokenPrize",
          "type": "uint256"
        }
      ],
      "name": "setTokenPrize",
      "outputs": [],
      "stateMutability": "payable",
      "type": "function",
      "payable": true
    },
    {
      "inputs": [
        {
          "internalType": "uint256",
          "name": "newTokenToAdd",
          "type": "uint256"
        }
      ],
      "name": "addNewTokens",
      "outputs": [],
      "stateMutability": "payable",
      "type": "function",
      "payable": true
    },
    {
      "inputs": [
        {
          "internalType": "uint256",
          "name": "newTokenToRemove",
          "type": "uint256"
        }
      ],
      "name": "removeTokens",
      "outputs": [],
      "stateMutability": "payable",
      "type": "function",
      "payable": true
    },
    {
      "inputs": [],
      "name": "getTokenPrize",
      "outputs": [
        {
          "internalType": "uint256",
          "name": "",
          "type": "uint256"
        }
      ],
      "stateMutability": "view",
      "type": "function",
      "constant": true
    },
    {
      "inputs": [],
      "name": "buyTokens",
      "outputs": [],
      "stateMutability": "payable",
      "type": "function",
      "payable": true
    },
    {
      "inputs": [
        {
          "internalType": "address",
          "name": "buyer",
          "type": "address"
        },
        {
          "internalType": "uint256",
          "name": "amount",
          "type": "uint256"
        }
      ],
      "name": "makePayment",
      "outputs": [],
      "stateMutability": "nonpayable",
      "type": "function"
    },
    {
      "inputs": [
        {
          "internalType": "uint256",
          "name": "amount",
          "type": "uint256"
        },
        {
          "internalType": "uint256",
          "name": "paymendId",
          "type": "uint256"
        },
        {
          "internalType": "uint256",
          "name": "orderId",
          "type": "uint256"
        },
        {
          "internalType": "string",
          "name": "IPFS_Hash_",
          "type": "string"
        },
        {
          "internalType": "string",
          "name": "Storage_link_",
          "type": "string"
        },
        {
          "internalType": "string",
          "name": "transaction_hash_",
          "type": "string"
        }
      ],
      "name": "payWithPaymentID",
      "outputs": [
        {
          "internalType": "bool",
          "name": "",
          "type": "bool"
        }
      ],
      "stateMutability": "nonpayable",
      "type": "function"
    },
    {
      "inputs": [
        {
          "internalType": "uint256",
          "name": "orderID_",
          "type": "uint256"
        },
        {
          "internalType": "address",
          "name": "from_",
          "type": "address"
        },
        {
          "internalType": "address",
          "name": "to_",
          "type": "address"
        },
        {
          "internalType": "string",
          "name": "IPFS_Hash_",
          "type": "string"
        },
        {
          "internalType": "string",
          "name": "Storage_link_",
          "type": "string"
        },
        {
          "internalType": "string",
          "name": "transaction_hash_",
          "type": "string"
        },
        {
          "internalType": "uint256",
          "name": "amount_",
          "type": "uint256"
        }
      ],
      "name": "payToSeller",
      "outputs": [
        {
          "components": [
            {
              "internalType": "uint256",
              "name": "orderID",
              "type": "uint256"
            },
            {
              "internalType": "address",
              "name": "from",
              "type": "address"
            },
            {
              "internalType": "address",
              "name": "to",
              "type": "address"
            },
            {
              "internalType": "string",
              "name": "IPFS_Hash",
              "type": "string"
            },
            {
              "internalType": "string",
              "name": "Storage_link",
              "type": "string"
            },
            {
              "internalType": "string",
              "name": "transaction_hash",
              "type": "string"
            },
            {
              "internalType": "uint256",
              "name": "amount",
              "type": "uint256"
            }
          ],
          "internalType": "struct TinToken.order_struct",
          "name": "",
          "type": "tuple"
        }
      ],
      "stateMutability": "nonpayable",
      "type": "function"
    },
    {
      "inputs": [],
      "name": "getorders",
      "outputs": [
        {
          "components": [
            {
              "internalType": "uint256",
              "name": "orderID",
              "type": "uint256"
            },
            {
              "internalType": "address",
              "name": "from",
              "type": "address"
            },
            {
              "internalType": "address",
              "name": "to",
              "type": "address"
            },
            {
              "internalType": "string",
              "name": "IPFS_Hash",
              "type": "string"
            },
            {
              "internalType": "string",
              "name": "Storage_link",
              "type": "string"
            },
            {
              "internalType": "string",
              "name": "transaction_hash",
              "type": "string"
            },
            {
              "internalType": "uint256",
              "name": "amount",
              "type": "uint256"
            }
          ],
          "internalType": "struct TinToken.order_struct[]",
          "name": "",
          "type": "tuple[]"
        }
      ],
      "stateMutability": "view",
      "type": "function",
      "constant": true
    },
    {
      "inputs": [],
      "name": "totalEtherSendByUser",
      "outputs": [
        {
          "internalType": "uint256",
          "name": "",
          "type": "uint256"
        }
      ],
      "stateMutability": "view",
      "type": "function",
      "constant": true
    },
    {
      "inputs": [],
      "name": "getTokenAddress",
      "outputs": [
        {
          "internalType": "address",
          "name": "",
          "type": "address"
        }
      ],
      "stateMutability": "view",
      "type": "function",
      "constant": true
    }
  ],
  "bytecode": "0x6080604052620186a06005553480156200001857600080fd5b5060405162003e9f38038062003e9f83398181016040528101906200003e9190620002a0565b6040518060400160405280600381526020017f54696e00000000000000000000000000000000000000000000000000000000008152506040518060400160405280600381526020017f54494e00000000000000000000000000000000000000000000000000000000008152508160039081620000bb919062000542565b508060049081620000cd919062000542565b505050620000e23082620000e960201b60201c565b5062000744565b600073ffffffffffffffffffffffffffffffffffffffff168273ffffffffffffffffffffffffffffffffffffffff16036200015b576040517f08c379a000000000000000000000000000000000000000000000000000000000815260040162000152906200068a565b60405180910390fd5b6200016f600083836200025660201b60201c565b8060026000828254620001839190620006db565b92505081905550806000808473ffffffffffffffffffffffffffffffffffffffff1673ffffffffffffffffffffffffffffffffffffffff168152602001908152602001600020600082825401925050819055508173ffffffffffffffffffffffffffffffffffffffff16600073ffffffffffffffffffffffffffffffffffffffff167fddf252ad1be2c89b69c2b068fc378daa952ba7f163c4a11628f55a4df523b3ef8360405162000236919062000727565b60405180910390a362000252600083836200025b60201b60201c565b5050565b505050565b505050565b600080fd5b6000819050919050565b6200027a8162000265565b81146200028657600080fd5b50565b6000815190506200029a816200026f565b92915050565b600060208284031215620002b957620002b862000260565b5b6000620002c98482850162000289565b91505092915050565b600081519050919050565b7f4e487b7100000000000000000000000000000000000000000000000000000000600052604160045260246000fd5b7f4e487b7100000000000000000000000000000000000000000000000000000000600052602260045260246000fd5b600060028204905060018216806200035457607f821691505b6020821081036200036a57620003696200030c565b5b50919050565b60008190508160005260206000209050919050565b60006020601f8301049050919050565b600082821b905092915050565b600060088302620003d47fffffffffffffffffffffffffffffffffffffffffffffffffffffffffffffffff8262000395565b620003e0868362000395565b95508019841693508086168417925050509392505050565b6000819050919050565b6000620004236200041d620004178462000265565b620003f8565b62000265565b9050919050565b6000819050919050565b6200043f8362000402565b620004576200044e826200042a565b848454620003a2565b825550505050565b600090565b6200046e6200045f565b6200047b81848462000434565b505050565b5b81811015620004a3576200049760008262000464565b60018101905062000481565b5050565b601f821115620004f257620004bc8162000370565b620004c78462000385565b81016020851015620004d7578190505b620004ef620004e68562000385565b83018262000480565b50505b505050565b600082821c905092915050565b60006200051760001984600802620004f7565b1980831691505092915050565b600062000532838362000504565b9150826002028217905092915050565b6200054d82620002d2565b67ffffffffffffffff811115620005695762000568620002dd565b5b6200057582546200033b565b62000582828285620004a7565b600060209050601f831160018114620005ba5760008415620005a5578287015190505b620005b1858262000524565b86555062000621565b601f198416620005ca8662000370565b60005b82811015620005f457848901518255600182019150602085019450602081019050620005cd565b8683101562000614578489015162000610601f89168262000504565b8355505b6001600288020188555050505b505050505050565b600082825260208201905092915050565b7f45524332303a206d696e7420746f20746865207a65726f206164647265737300600082015250565b600062000672601f8362000629565b91506200067f826200063a565b602082019050919050565b60006020820190508181036000830152620006a58162000663565b9050919050565b7f4e487b7100000000000000000000000000000000000000000000000000000000600052601160045260246000fd5b6000620006e88262000265565b9150620006f58362000265565b925082820190508082111562000710576200070f620006ac565b5b92915050565b620007218162000265565b82525050565b60006020820190506200073e600083018462000716565b92915050565b61374b80620007546000396000f3fe60806040526004361061014f5760003560e01c806395d89b41116100b6578063b8cb65ee1161006f578063b8cb65ee146105d5578063bc947f01146105f1578063d0febe4c1461061c578063dd62ed3e14610626578063e71264fa14610663578063f98cf07c1461067f5761021f565b806395d89b41146104975780639a1013bf146104c2578063a457c2d7146104ed578063a585bfb01461052a578063a85c38ef14610555578063a9059cbb146105985761021f565b8063313ce56711610108578063313ce5671461035c57806339509351146103875780636db8e974146103c45780636ddeea6e1461040157806370a082311461043e57806374ad06861461047b5761021f565b806306fdde0314610224578063095ea7b31461024f57806310fe9ae81461028c57806318160ddd146102b757806323b872dd146102e25780632fab0aff1461031f5761021f565b3661021f576007339080600181540180825580915050600190039060005260206000200160009091909190916101000a81548173ffffffffffffffffffffffffffffffffffffffff021916908373ffffffffffffffffffffffffffffffffffffffff160217905550600660003373ffffffffffffffffffffffffffffffffffffffff1673ffffffffffffffffffffffffffffffffffffffff168152602001908152602001600020349080600181540180825580915050600190039060005260206000200160009091909190915055005b600080fd5b34801561023057600080fd5b506102396106a8565b6040516102469190612273565b60405180910390f35b34801561025b57600080fd5b506102766004803603810190610271919061233d565b61073a565b6040516102839190612398565b60405180910390f35b34801561029857600080fd5b506102a161075d565b6040516102ae91906123c2565b60405180910390f35b3480156102c357600080fd5b506102cc610765565b6040516102d991906123ec565b60405180910390f35b3480156102ee57600080fd5b5061030960048036038101906103049190612407565b61076f565b6040516103169190612398565b60405180910390f35b34801561032b57600080fd5b506103466004803603810190610341919061245a565b61079e565b60405161035391906123ec565b60405180910390f35b34801561036857600080fd5b506103716107c2565b60405161037e91906124a3565b60405180910390f35b34801561039357600080fd5b506103ae60048036038101906103a9919061233d565b6107cb565b6040516103bb9190612398565b60405180910390f35b3480156103d057600080fd5b506103eb60048036038101906103e691906125f3565b610802565b6040516103f89190612398565b60405180910390f35b34801561040d57600080fd5b50610428600480360381019061042391906126d4565b610a8d565b60405161043591906128dc565b60405180910390f35b34801561044a57600080fd5b50610465600480360381019061046091906128fe565b610d25565b60405161047291906123ec565b60405180910390f35b6104956004803603810190610490919061245a565b610d6d565b005b3480156104a357600080fd5b506104ac610dbf565b6040516104b99190612273565b60405180910390f35b3480156104ce57600080fd5b506104d7610e51565b6040516104e491906123ec565b60405180910390f35b3480156104f957600080fd5b50610514600480360381019061050f919061233d565b610f3b565b6040516105219190612398565b60405180910390f35b34801561053657600080fd5b5061053f610fb2565b60405161054c9190612a97565b60405180910390f35b34801561056157600080fd5b5061057c6004803603810190610577919061245a565b611287565b60405161058f9796959493929190612ab9565b60405180910390f35b3480156105a457600080fd5b506105bf60048036038101906105ba919061233d565b6114b1565b6040516105cc9190612398565b60405180910390f35b6105ef60048036038101906105ea919061245a565b6114d4565b005b3480156105fd57600080fd5b50610606611529565b60405161061391906123ec565b60405180910390f35b610624611533565b005b34801561063257600080fd5b5061064d60048036038101906106489190612b3d565b6117dc565b60405161065a91906123ec565b60405180910390f35b61067d6004803603810190610678919061245a565b611863565b005b34801561068b57600080fd5b506106a660048036038101906106a1919061233d565b6118b8565b005b6060600380546106b790612bac565b80601f01602080910402602001604051908101604052809291908181526020018280546106e390612bac565b80156107305780601f1061070557610100808354040283529160200191610730565b820191906000526020600020905b81548152906001019060200180831161071357829003601f168201915b5050505050905090565b6000806107456118c8565b90506107528185856118d0565b600191505092915050565b600030905090565b6000600254905090565b60008061077a6118c8565b9050610787858285611a99565b610792858585611b25565b60019150509392505050565b600981815481106107ae57600080fd5b906000526020600020016000915090505481565b60006012905090565b6000806107d66118c8565b90506107f78185856107e885896117dc565b6107f29190612c0c565b6118d0565b600191505092915050565b600061080c61217a565b8581600001818152505033816020019073ffffffffffffffffffffffffffffffffffffffff16908173ffffffffffffffffffffffffffffffffffffffff168152505030816040019073ffffffffffffffffffffffffffffffffffffffff16908173ffffffffffffffffffffffffffffffffffffffff1681525050848160600181905250838160800181905250828160a00181905250878160c00181815250506108b530896114b1565b15610a3e577f544caf200015959964c0a99785d417bd4d6915512d7cb574ac1b503bd3ae843f33898989426040516108f1959493929190612c40565b60405180910390a160088190806001815401808255809150506001900390600052602060002090600702016000909190919091506000820151816000015560208201518160010160006101000a81548173ffffffffffffffffffffffffffffffffffffffff021916908373ffffffffffffffffffffffffffffffffffffffff16021790555060408201518160020160006101000a81548173ffffffffffffffffffffffffffffffffffffffff021916908373ffffffffffffffffffffffffffffffffffffffff16021790555060608201518160030190816109d29190612e3f565b5060808201518160040190816109e89190612e3f565b5060a08201518160050190816109fe9190612e3f565b5060c08201518160060155505060098690806001815401808255809150506001900390600052602060002001600090919091909150556001915050610a83565b7fcfabeb3774fa5b47780a420297a4fe61af82a013d07403039ce53cafea88643a3389898942604051610a75959493929190612c40565b60405180910390a160009150505b9695505050505050565b610a9561217a565b610a9d61217a565b8881600001818152505087816020019073ffffffffffffffffffffffffffffffffffffffff16908173ffffffffffffffffffffffffffffffffffffffff168152505086816040019073ffffffffffffffffffffffffffffffffffffffff16908173ffffffffffffffffffffffffffffffffffffffff1681525050858160600181905250848160800181905250838160a00181905250828160c0018181525050610b4687846114b1565b15610cd25760088190806001815401808255809150506001900390600052602060002090600702016000909190919091506000820151816000015560208201518160010160006101000a81548173ffffffffffffffffffffffffffffffffffffffff021916908373ffffffffffffffffffffffffffffffffffffffff16021790555060408201518160020160006101000a81548173ffffffffffffffffffffffffffffffffffffffff021916908373ffffffffffffffffffffffffffffffffffffffff1602179055506060820151816003019081610c249190612e3f565b506080820151816004019081610c3a9190612e3f565b5060a0820151816005019081610c509190612e3f565b5060c08201518160060155505060098990806001815401808255809150506001900390600052602060002001600090919091909150557fc4be7315bbfa77ddfcafcea2e1cd439a16caef6ba4ec84335479dd43e72ed6c689898989898989604051610cc19796959493929190612ab9565b60405180910390a180915050610d1a565b7fa28209904c03ba4ca814186798816837a7da480219cf431f541cc09d4baaf02989898989898989604051610d0d9796959493929190612ab9565b60405180910390a1809150505b979650505050505050565b60008060008373ffffffffffffffffffffffffffffffffffffffff1673ffffffffffffffffffffffffffffffffffffffff168152602001908152602001600020549050919050565b73dfeb088754c16a2657ee3a78f702016ebb5d1c1573ffffffffffffffffffffffffffffffffffffffff163373ffffffffffffffffffffffffffffffffffffffff1603610dbc57806005819055505b50565b606060048054610dce90612bac565b80601f0160208091040260200160405190810160405280929190818152602001828054610dfa90612bac565b8015610e475780601f10610e1c57610100808354040283529160200191610e47565b820191906000526020600020905b815481529060010190602001808311610e2a57829003601f168201915b5050505050905090565b600080600660003373ffffffffffffffffffffffffffffffffffffffff1673ffffffffffffffffffffffffffffffffffffffff168152602001908152602001600020805480602002602001604051908101604052809291908181526020018280548015610edd57602002820191906000526020600020905b815481526020019060010190808311610ec9575b505050505090506000815190506000805b82811015610f3157838181518110610f0957610f08612f11565b5b602002602001015182610f1c9190612c0c565b91508080610f2990612f40565b915050610eee565b5080935050505090565b600080610f466118c8565b90506000610f5482866117dc565b905083811015610f99576040517f08c379a0000000000000000000000000000000000000000000000000000000008152600401610f9090612ffa565b60405180910390fd5b610fa682868684036118d0565b60019250505092915050565b60606008805480602002602001604051908101604052809291908181526020016000905b8282101561127e57838290600052602060002090600702016040518060e0016040529081600082015481526020016001820160009054906101000a900473ffffffffffffffffffffffffffffffffffffffff1673ffffffffffffffffffffffffffffffffffffffff1673ffffffffffffffffffffffffffffffffffffffff1681526020016002820160009054906101000a900473ffffffffffffffffffffffffffffffffffffffff1673ffffffffffffffffffffffffffffffffffffffff1673ffffffffffffffffffffffffffffffffffffffff1681526020016003820180546110bf90612bac565b80601f01602080910402602001604051908101604052809291908181526020018280546110eb90612bac565b80156111385780601f1061110d57610100808354040283529160200191611138565b820191906000526020600020905b81548152906001019060200180831161111b57829003601f168201915b5050505050815260200160048201805461115190612bac565b80601f016020809104026020016040519081016040528092919081815260200182805461117d90612bac565b80156111ca5780601f1061119f576101008083540402835291602001916111ca565b820191906000526020600020905b8154815290600101906020018083116111ad57829003601f168201915b505050505081526020016005820180546111e390612bac565b80601f016020809104026020016040519081016040528092919081815260200182805461120f90612bac565b801561125c5780601f106112315761010080835404028352916020019161125c565b820191906000526020600020905b81548152906001019060200180831161123f57829003601f168201915b5050505050815260200160068201548152505081526020019060010190610fd6565b50505050905090565b6008818154811061129757600080fd5b90600052602060002090600702016000915090508060000154908060010160009054906101000a900473ffffffffffffffffffffffffffffffffffffffff16908060020160009054906101000a900473ffffffffffffffffffffffffffffffffffffffff169080600301805461130c90612bac565b80601f016020809104026020016040519081016040528092919081815260200182805461133890612bac565b80156113855780601f1061135a57610100808354040283529160200191611385565b820191906000526020600020905b81548152906001019060200180831161136857829003601f168201915b50505050509080600401805461139a90612bac565b80601f01602080910402602001604051908101604052809291908181526020018280546113c690612bac565b80156114135780601f106113e857610100808354040283529160200191611413565b820191906000526020600020905b8154815290600101906020018083116113f657829003601f168201915b50505050509080600501805461142890612bac565b80601f016020809104026020016040519081016040528092919081815260200182805461145490612bac565b80156114a15780601f10611476576101008083540402835291602001916114a1565b820191906000526020600020905b81548152906001019060200180831161148457829003601f168201915b5050505050908060060154905087565b6000806114bc6118c8565b90506114c9818585611b25565b600191505092915050565b73dfeb088754c16a2657ee3a78f702016ebb5d1c1573ffffffffffffffffffffffffffffffffffffffff163373ffffffffffffffffffffffffffffffffffffffff1603611526576115253082611d9b565b5b50565b6000600554905090565b6000600554346115439190613049565b905060003073ffffffffffffffffffffffffffffffffffffffff166370a08231306040518263ffffffff1660e01b815260040161158091906123c2565b602060405180830381865afa15801561159d573d6000803e3d6000fd5b505050506040513d601f19601f820116820180604052508101906115c1919061308f565b90506115cc33611f68565b611634576007339080600181540180825580915050600190039060005260206000200160009091909190916101000a81548173ffffffffffffffffffffffffffffffffffffffff021916908373ffffffffffffffffffffffffffffffffffffffff1602179055505b600660003373ffffffffffffffffffffffffffffffffffffffff1673ffffffffffffffffffffffffffffffffffffffff168152602001908152602001600020349080600181540180825580915050600190039060005260206000200160009091909190915055600082116116dd576040517f08c379a00000000000000000000000000000000000000000000000000000000081526004016116d490613108565b60405180910390fd5b80821115611720576040517f08c379a000000000000000000000000000000000000000000000000000000000815260040161171790613174565b60405180910390fd5b3073ffffffffffffffffffffffffffffffffffffffff1663a9059cbb33846040518363ffffffff1660e01b815260040161175b929190613194565b6020604051808303816000875af115801561177a573d6000803e3d6000fd5b505050506040513d601f19601f8201168201806040525081019061179e91906131e9565b507fc54c8cc1c7525b424ec71b685c00d9355581a280488018c22005332ceb2fd40682336040516117d0929190613216565b60405180910390a15050565b6000600160008473ffffffffffffffffffffffffffffffffffffffff1673ffffffffffffffffffffffffffffffffffffffff16815260200190815260200160002060008373ffffffffffffffffffffffffffffffffffffffff1673ffffffffffffffffffffffffffffffffffffffff16815260200190815260200160002054905092915050565b73dfeb088754c16a2657ee3a78f702016ebb5d1c1573ffffffffffffffffffffffffffffffffffffffff163373ffffffffffffffffffffffffffffffffffffffff16036118b5576118b4308261201a565b5b50565b6118c382308361076f565b505050565b600033905090565b600073ffffffffffffffffffffffffffffffffffffffff168373ffffffffffffffffffffffffffffffffffffffff160361193f576040517f08c379a0000000000000000000000000000000000000000000000000000000008152600401611936906132b1565b60405180910390fd5b600073ffffffffffffffffffffffffffffffffffffffff168273ffffffffffffffffffffffffffffffffffffffff16036119ae576040517f08c379a00000000000000000000000000000000000000000000000000000000081526004016119a590613343565b60405180910390fd5b80600160008573ffffffffffffffffffffffffffffffffffffffff1673ffffffffffffffffffffffffffffffffffffffff16815260200190815260200160002060008473ffffffffffffffffffffffffffffffffffffffff1673ffffffffffffffffffffffffffffffffffffffff168152602001908152602001600020819055508173ffffffffffffffffffffffffffffffffffffffff168373ffffffffffffffffffffffffffffffffffffffff167f8c5be1e5ebec7d5bd14f71427d1e84f3dd0314c0f7b2291e5b200ac8c7c3b92583604051611a8c91906123ec565b60405180910390a3505050565b6000611aa584846117dc565b90507fffffffffffffffffffffffffffffffffffffffffffffffffffffffffffffffff8114611b1f5781811015611b11576040517f08c379a0000000000000000000000000000000000000000000000000000000008152600401611b08906133af565b60405180910390fd5b611b1e84848484036118d0565b5b50505050565b600073ffffffffffffffffffffffffffffffffffffffff168373ffffffffffffffffffffffffffffffffffffffff1603611b94576040517f08c379a0000000000000000000000000000000000000000000000000000000008152600401611b8b90613441565b60405180910390fd5b600073ffffffffffffffffffffffffffffffffffffffff168273ffffffffffffffffffffffffffffffffffffffff1603611c03576040517f08c379a0000000000000000000000000000000000000000000000000000000008152600401611bfa906134d3565b60405180910390fd5b611c0e838383612170565b60008060008573ffffffffffffffffffffffffffffffffffffffff1673ffffffffffffffffffffffffffffffffffffffff16815260200190815260200160002054905081811015611c94576040517f08c379a0000000000000000000000000000000000000000000000000000000008152600401611c8b90613565565b60405180910390fd5b8181036000808673ffffffffffffffffffffffffffffffffffffffff1673ffffffffffffffffffffffffffffffffffffffff16815260200190815260200160002081905550816000808573ffffffffffffffffffffffffffffffffffffffff1673ffffffffffffffffffffffffffffffffffffffff168152602001908152602001600020600082825401925050819055508273ffffffffffffffffffffffffffffffffffffffff168473ffffffffffffffffffffffffffffffffffffffff167fddf252ad1be2c89b69c2b068fc378daa952ba7f163c4a11628f55a4df523b3ef84604051611d8291906123ec565b60405180910390a3611d95848484612175565b50505050565b600073ffffffffffffffffffffffffffffffffffffffff168273ffffffffffffffffffffffffffffffffffffffff1603611e0a576040517f08c379a0000000000000000000000000000000000000000000000000000000008152600401611e01906135f7565b60405180910390fd5b611e1682600083612170565b60008060008473ffffffffffffffffffffffffffffffffffffffff1673ffffffffffffffffffffffffffffffffffffffff16815260200190815260200160002054905081811015611e9c576040517f08c379a0000000000000000000000000000000000000000000000000000000008152600401611e9390613689565b60405180910390fd5b8181036000808573ffffffffffffffffffffffffffffffffffffffff1673ffffffffffffffffffffffffffffffffffffffff1681526020019081526020016000208190555081600260008282540392505081905550600073ffffffffffffffffffffffffffffffffffffffff168373ffffffffffffffffffffffffffffffffffffffff167fddf252ad1be2c89b69c2b068fc378daa952ba7f163c4a11628f55a4df523b3ef84604051611f4f91906123ec565b60405180910390a3611f6383600084612175565b505050565b600080600780549050905060005b8181101561200e5760078181548110611f9257611f91612f11565b5b9060005260206000200160009054906101000a900473ffffffffffffffffffffffffffffffffffffffff1673ffffffffffffffffffffffffffffffffffffffff168473ffffffffffffffffffffffffffffffffffffffff1603611ffa57600192505050612015565b6001816120079190612c0c565b9050611f76565b5060009150505b919050565b600073ffffffffffffffffffffffffffffffffffffffff168273ffffffffffffffffffffffffffffffffffffffff1603612089576040517f08c379a0000000000000000000000000000000000000000000000000000000008152600401612080906136f5565b60405180910390fd5b61209560008383612170565b80600260008282546120a79190612c0c565b92505081905550806000808473ffffffffffffffffffffffffffffffffffffffff1673ffffffffffffffffffffffffffffffffffffffff168152602001908152602001600020600082825401925050819055508173ffffffffffffffffffffffffffffffffffffffff16600073ffffffffffffffffffffffffffffffffffffffff167fddf252ad1be2c89b69c2b068fc378daa952ba7f163c4a11628f55a4df523b3ef8360405161215891906123ec565b60405180910390a361216c60008383612175565b5050565b505050565b505050565b6040518060e0016040528060008152602001600073ffffffffffffffffffffffffffffffffffffffff168152602001600073ffffffffffffffffffffffffffffffffffffffff168152602001606081526020016060815260200160608152602001600081525090565b600081519050919050565b600082825260208201905092915050565b60005b8381101561221d578082015181840152602081019050612202565b60008484015250505050565b6000601f19601f8301169050919050565b6000612245826121e3565b61224f81856121ee565b935061225f8185602086016121ff565b61226881612229565b840191505092915050565b6000602082019050818103600083015261228d818461223a565b905092915050565b6000604051905090565b600080fd5b600080fd5b600073ffffffffffffffffffffffffffffffffffffffff82169050919050565b60006122d4826122a9565b9050919050565b6122e4816122c9565b81146122ef57600080fd5b50565b600081359050612301816122db565b92915050565b6000819050919050565b61231a81612307565b811461232557600080fd5b50565b60008135905061233781612311565b92915050565b600080604083850312156123545761235361229f565b5b6000612362858286016122f2565b925050602061237385828601612328565b9150509250929050565b60008115159050919050565b6123928161237d565b82525050565b60006020820190506123ad6000830184612389565b92915050565b6123bc816122c9565b82525050565b60006020820190506123d760008301846123b3565b92915050565b6123e681612307565b82525050565b600060208201905061240160008301846123dd565b92915050565b6000806000606084860312156124205761241f61229f565b5b600061242e868287016122f2565b935050602061243f868287016122f2565b925050604061245086828701612328565b9150509250925092565b6000602082840312156124705761246f61229f565b5b600061247e84828501612328565b91505092915050565b600060ff82169050919050565b61249d81612487565b82525050565b60006020820190506124b86000830184612494565b92915050565b600080fd5b600080fd5b7f4e487b7100000000000000000000000000000000000000000000000000000000600052604160045260246000fd5b61250082612229565b810181811067ffffffffffffffff8211171561251f5761251e6124c8565b5b80604052505050565b6000612532612295565b905061253e82826124f7565b919050565b600067ffffffffffffffff82111561255e5761255d6124c8565b5b61256782612229565b9050602081019050919050565b82818337600083830152505050565b600061259661259184612543565b612528565b9050828152602081018484840111156125b2576125b16124c3565b5b6125bd848285612574565b509392505050565b600082601f8301126125da576125d96124be565b5b81356125ea848260208601612583565b91505092915050565b60008060008060008060c087890312156126105761260f61229f565b5b600061261e89828a01612328565b965050602061262f89828a01612328565b955050604061264089828a01612328565b945050606087013567ffffffffffffffff811115612661576126606122a4565b5b61266d89828a016125c5565b935050608087013567ffffffffffffffff81111561268e5761268d6122a4565b5b61269a89828a016125c5565b92505060a087013567ffffffffffffffff8111156126bb576126ba6122a4565b5b6126c789828a016125c5565b9150509295509295509295565b600080600080600080600060e0888a0312156126f3576126f261229f565b5b60006127018a828b01612328565b97505060206127128a828b016122f2565b96505060406127238a828b016122f2565b955050606088013567ffffffffffffffff811115612744576127436122a4565b5b6127508a828b016125c5565b945050608088013567ffffffffffffffff811115612771576127706122a4565b5b61277d8a828b016125c5565b93505060a088013567ffffffffffffffff81111561279e5761279d6122a4565b5b6127aa8a828b016125c5565b92505060c06127bb8a828b01612328565b91505092959891949750929550565b6127d381612307565b82525050565b6127e2816122c9565b82525050565b600082825260208201905092915050565b6000612804826121e3565b61280e81856127e8565b935061281e8185602086016121ff565b61282781612229565b840191505092915050565b600060e08301600083015161284a60008601826127ca565b50602083015161285d60208601826127d9565b50604083015161287060408601826127d9565b506060830151848203606086015261288882826127f9565b915050608083015184820360808601526128a282826127f9565b91505060a083015184820360a08601526128bc82826127f9565b91505060c08301516128d160c08601826127ca565b508091505092915050565b600060208201905081810360008301526128f68184612832565b905092915050565b6000602082840312156129145761291361229f565b5b6000612922848285016122f2565b91505092915050565b600081519050919050565b600082825260208201905092915050565b6000819050602082019050919050565b600060e08301600083015161296f60008601826127ca565b50602083015161298260208601826127d9565b50604083015161299560408601826127d9565b50606083015184820360608601526129ad82826127f9565b915050608083015184820360808601526129c782826127f9565b91505060a083015184820360a08601526129e182826127f9565b91505060c08301516129f660c08601826127ca565b508091505092915050565b6000612a0d8383612957565b905092915050565b6000602082019050919050565b6000612a2d8261292b565b612a378185612936565b935083602082028501612a4985612947565b8060005b85811015612a855784840389528151612a668582612a01565b9450612a7183612a15565b925060208a01995050600181019050612a4d565b50829750879550505050505092915050565b60006020820190508181036000830152612ab18184612a22565b905092915050565b600060e082019050612ace600083018a6123dd565b612adb60208301896123b3565b612ae860408301886123b3565b8181036060830152612afa818761223a565b90508181036080830152612b0e818661223a565b905081810360a0830152612b22818561223a565b9050612b3160c08301846123dd565b98975050505050505050565b60008060408385031215612b5457612b5361229f565b5b6000612b62858286016122f2565b9250506020612b73858286016122f2565b9150509250929050565b7f4e487b7100000000000000000000000000000000000000000000000000000000600052602260045260246000fd5b60006002820490506001821680612bc457607f821691505b602082108103612bd757612bd6612b7d565b5b50919050565b7f4e487b7100000000000000000000000000000000000000000000000000000000600052601160045260246000fd5b6000612c1782612307565b9150612c2283612307565b9250828201905080821115612c3a57612c39612bdd565b5b92915050565b600060a082019050612c5560008301886123b3565b612c6260208301876123dd565b612c6f60408301866123dd565b612c7c60608301856123dd565b612c8960808301846123dd565b9695505050505050565b60008190508160005260206000209050919050565b60006020601f8301049050919050565b600082821b905092915050565b600060088302612cf57fffffffffffffffffffffffffffffffffffffffffffffffffffffffffffffffff82612cb8565b612cff8683612cb8565b95508019841693508086168417925050509392505050565b6000819050919050565b6000612d3c612d37612d3284612307565b612d17565b612307565b9050919050565b6000819050919050565b612d5683612d21565b612d6a612d6282612d43565b848454612cc5565b825550505050565b600090565b612d7f612d72565b612d8a818484612d4d565b505050565b5b81811015612dae57612da3600082612d77565b600181019050612d90565b5050565b601f821115612df357612dc481612c93565b612dcd84612ca8565b81016020851015612ddc578190505b612df0612de885612ca8565b830182612d8f565b50505b505050565b600082821c905092915050565b6000612e1660001984600802612df8565b1980831691505092915050565b6000612e2f8383612e05565b9150826002028217905092915050565b612e48826121e3565b67ffffffffffffffff811115612e6157612e606124c8565b5b612e6b8254612bac565b612e76828285612db2565b600060209050601f831160018114612ea95760008415612e97578287015190505b612ea18582612e23565b865550612f09565b601f198416612eb786612c93565b60005b82811015612edf57848901518255600182019150602085019450602081019050612eba565b86831015612efc5784890151612ef8601f891682612e05565b8355505b6001600288020188555050505b505050505050565b7f4e487b7100000000000000000000000000000000000000000000000000000000600052603260045260246000fd5b6000612f4b82612307565b91507fffffffffffffffffffffffffffffffffffffffffffffffffffffffffffffffff8203612f7d57612f7c612bdd565b5b600182019050919050565b7f45524332303a2064656372656173656420616c6c6f77616e63652062656c6f7760008201527f207a65726f000000000000000000000000000000000000000000000000000000602082015250565b6000612fe46025836121ee565b9150612fef82612f88565b604082019050919050565b6000602082019050818103600083015261301381612fd7565b9050919050565b7f4e487b7100000000000000000000000000000000000000000000000000000000600052601260045260246000fd5b600061305482612307565b915061305f83612307565b92508261306f5761306e61301a565b5b828204905092915050565b60008151905061308981612311565b92915050565b6000602082840312156130a5576130a461229f565b5b60006130b38482850161307a565b91505092915050565b7f596f75206e65656420746f2073656e6420736f6d652065746865720000000000600082015250565b60006130f2601b836121ee565b91506130fd826130bc565b602082019050919050565b60006020820190508181036000830152613121816130e5565b9050919050565b7f4e6f7420656e6f75676820746f6b656e7320696e207468652072657365727665600082015250565b600061315e6020836121ee565b915061316982613128565b602082019050919050565b6000602082019050818103600083015261318d81613151565b9050919050565b60006040820190506131a960008301856123b3565b6131b660208301846123dd565b9392505050565b6131c68161237d565b81146131d157600080fd5b50565b6000815190506131e3816131bd565b92915050565b6000602082840312156131ff576131fe61229f565b5b600061320d848285016131d4565b91505092915050565b600060408201905061322b60008301856123dd565b61323860208301846123b3565b9392505050565b7f45524332303a20617070726f76652066726f6d20746865207a65726f2061646460008201527f7265737300000000000000000000000000000000000000000000000000000000602082015250565b600061329b6024836121ee565b91506132a68261323f565b604082019050919050565b600060208201905081810360008301526132ca8161328e565b9050919050565b7f45524332303a20617070726f766520746f20746865207a65726f20616464726560008201527f7373000000000000000000000000000000000000000000000000000000000000602082015250565b600061332d6022836121ee565b9150613338826132d1565b604082019050919050565b6000602082019050818103600083015261335c81613320565b9050919050565b7f45524332303a20696e73756666696369656e7420616c6c6f77616e6365000000600082015250565b6000613399601d836121ee565b91506133a482613363565b602082019050919050565b600060208201905081810360008301526133c88161338c565b9050919050565b7f45524332303a207472616e736665722066726f6d20746865207a65726f20616460008201527f6472657373000000000000000000000000000000000000000000000000000000602082015250565b600061342b6025836121ee565b9150613436826133cf565b604082019050919050565b6000602082019050818103600083015261345a8161341e565b9050919050565b7f45524332303a207472616e7366657220746f20746865207a65726f206164647260008201527f6573730000000000000000000000000000000000000000000000000000000000602082015250565b60006134bd6023836121ee565b91506134c882613461565b604082019050919050565b600060208201905081810360008301526134ec816134b0565b9050919050565b7f45524332303a207472616e7366657220616d6f756e742065786365656473206260008201527f616c616e63650000000000000000000000000000000000000000000000000000602082015250565b600061354f6026836121ee565b915061355a826134f3565b604082019050919050565b6000602082019050818103600083015261357e81613542565b9050919050565b7f45524332303a206275726e2066726f6d20746865207a65726f2061646472657360008201527f7300000000000000000000000000000000000000000000000000000000000000602082015250565b60006135e16021836121ee565b91506135ec82613585565b604082019050919050565b60006020820190508181036000830152613610816135d4565b9050919050565b7f45524332303a206275726e20616d6f756e7420657863656564732062616c616e60008201527f6365000000000000000000000000000000000000000000000000000000000000602082015250565b60006136736022836121ee565b915061367e82613617565b604082019050919050565b600060208201905081810360008301526136a281613666565b9050919050565b7f45524332303a206d696e7420746f20746865207a65726f206164647265737300600082015250565b60006136df601f836121ee565b91506136ea826136a9565b602082019050919050565b6000602082019050818103600083015261370e816136d2565b905091905056fea264697066735822122095cfd6bf6db7cff8c05c1a3c3c3b739fe4c102b43f3d43a234bc63bd9938e9da64736f6c63430008120033",
  "immutableReferences": {},
  "source": "// contracts/GLDToken.sol\r\n// SPDX-License-Identifier: MIT\r\n\r\npragma solidity >=0.4.22 <0.9.0;\r\n\r\n\r\nimport \"../node_modules/@openzeppelin/contracts/token/ERC20/ERC20.sol\";\r\n\r\n\r\ncontract TinToken is ERC20 {\r\n    // state variables with will cost u gas for manipulation\r\n    // uint private tokenPrize = 1000000000000000000;\r\n    uint private tokenPrize = 100000;\r\n    mapping(address => uint[]) private EthereumSendersList;\r\n    address[] addressIndices ;\r\n    \r\n    // struct \r\n    struct order_struct{\r\n        uint orderID ;\r\n        address from ;\r\n        address to ;\r\n        string IPFS_Hash ;\r\n        string Storage_link ;\r\n        string transaction_hash;\r\n        uint amount;\r\n    }\r\n\r\n    order_struct[] public orders;\r\n    uint[] public ordersIndices;  // will have orderID\r\n\r\n    // enents\r\n    event Bought(uint256 amount , address receiver);\r\n    event Sold(uint256 amount);\r\n    event PaymentDone(address payer, uint amount, uint paymentId , uint orderId,uint date);\r\n    event PaymentFailed(address payer, uint amount, uint paymentId, uint orderId ,uint date);\r\n    event PaymentDoneToSeller(uint orderID , address from , address to_ , string IPFS_Hash ,string Storage_link , string transaction_hash , uint amount);\r\n    event PaymentFailedToSeller(uint orderID , address from , address to_ , string IPFS_Hash ,string Storage_link , string transaction_hash , uint amount);\r\n\r\n\r\n\r\n    // constructor\r\n    constructor(uint256 initialSupply) ERC20(\"Tin\", \"TIN\") {\r\n        _mint(address(this), initialSupply);\r\n    }\r\n\r\n\r\n// assuming we are using wei units for prizing i.e 1 eth = 10^18 wei units\r\n// this function is used to set new prize of the tokens in wei units\r\n    function setTokenPrize(uint newTokenPrize) payable external{\r\n        if(msg.sender== address(0xDFeb088754c16A2657ee3a78F702016eBB5d1C15)){\r\n            tokenPrize = newTokenPrize;\r\n        }\r\n    }\r\n\r\n// will add and remove new token\r\n    function addNewTokens(uint newTokenToAdd) payable external {\r\n        if(msg.sender== address(0xDFeb088754c16A2657ee3a78F702016eBB5d1C15)){\r\n            _mint(address(this), newTokenToAdd);\r\n        }\r\n    }\r\n\r\n    function removeTokens(uint newTokenToRemove) payable external {\r\n        if(msg.sender== address(0xDFeb088754c16A2657ee3a78F702016eBB5d1C15)){\r\n            _burn(address(this), newTokenToRemove);\r\n        }\r\n    }\r\n\r\n    function getTokenPrize() public view returns(uint){\r\n        return tokenPrize;\r\n    }\r\n\r\n    function addressExists(address address_) view internal returns(bool){\r\n        uint len = addressIndices.length;\r\n        for(uint i=0; i<len ; i+=1){\r\n            if(address_ == addressIndices[i]){\r\n                return true;\r\n            }\r\n        }\r\n        return false;\r\n    }\r\n\r\n    function buyTokens() payable public {\r\n        uint256 amountTobuy = msg.value/tokenPrize;                            \r\n        uint256 dexBalance = this.balanceOf(address(this));\r\n\r\n        // storaging the transaction\r\n        if(! addressExists(msg.sender )){\r\n            addressIndices.push(msg.sender);\r\n        }\r\n        EthereumSendersList[msg.sender].push(msg.value);\r\n\r\n        require(amountTobuy > 0, \"You need to send some ether\");\r\n        require(amountTobuy <= dexBalance, \"Not enough tokens in the reserve\");\r\n        this.transfer(msg.sender, amountTobuy);\r\n        emit Bought(amountTobuy , msg.sender);\r\n    }\r\n\r\n\r\n// making payments\r\n    function makePayment(address buyer , uint amount) public {\r\n        transferFrom(buyer,address(this), amount);\r\n    }\r\n\r\n    function payWithPaymentID(uint amount, uint paymendId , uint orderId , string memory IPFS_Hash_ ,string memory Storage_link_ , string memory transaction_hash_) external returns(bool){\r\n        order_struct memory order;\r\n        // order.orderID = orderID_;\r\n        order.orderID = orderId;\r\n        order.from = msg.sender;\r\n        order.to = address(this);\r\n        order.IPFS_Hash=IPFS_Hash_;\r\n        order.Storage_link =Storage_link_;\r\n        order.transaction_hash =transaction_hash_;\r\n        order.amount =amount;\r\n        \r\n        if(transfer(address(this), amount)){\r\n            emit PaymentDone(msg.sender, amount, paymendId, orderId ,  block.timestamp);\r\n            orders.push(order);\r\n            ordersIndices.push(orderId);\r\n            return true;\r\n        }\r\n        emit PaymentFailed(msg.sender, amount, paymendId, orderId , block.timestamp);\r\n        return false;\r\n    }\r\n\r\n    function payToSeller(uint orderID_ , address from_ , address to_ , string memory IPFS_Hash_ ,string memory Storage_link_ , string memory transaction_hash_ , uint amount_) public returns(order_struct memory) {\r\n        // uint index = ordersIndices.length;\r\n        order_struct memory order;\r\n        // order.orderID = orderID_;\r\n        order.orderID = orderID_;\r\n        order.from = from_;\r\n        order.to = to_;\r\n        order.IPFS_Hash=IPFS_Hash_;\r\n        order.Storage_link =Storage_link_;\r\n        order.transaction_hash =transaction_hash_;\r\n        order.amount =amount_;\r\n        \r\n        if(transfer(to_, amount_)){\r\n            orders.push(order);\r\n            ordersIndices.push(orderID_);\r\n            emit PaymentDoneToSeller(orderID_ , from_ , to_ ,IPFS_Hash_ ,Storage_link_ , transaction_hash_ , amount_);\r\n            return order;\r\n        }\r\n        emit PaymentFailedToSeller(orderID_ , from_ , to_ ,IPFS_Hash_ ,Storage_link_ , transaction_hash_ , amount_);\r\n        return order;\r\n    }\r\n\r\n    function getorders() public view returns(order_struct[] memory){\r\n        return orders;\r\n    }\r\n\r\n\r\n    // total ether send by user\r\n    function totalEtherSendByUser() view external returns(uint){\r\n        uint[] memory senderTransactions = EthereumSendersList[msg.sender];\r\n        uint len = senderTransactions.length;\r\n        uint sum=0;\r\n        for(uint i = 0 ; i< len ; i++){\r\n            sum+= senderTransactions[i];\r\n        }\r\n        return sum;\r\n    }\r\n\r\n\r\n    function getTokenAddress() public view returns(address){\r\n        return address(this);\r\n    }\r\n\r\n    // fallback function to send ethereum\r\n    receive () external payable {\r\n        // uint addressLength = addressIndices.length;\r\n        addressIndices.push(msg.sender);\r\n        EthereumSendersList[msg.sender].push(msg.value);\r\n    }\r\n\r\n    \r\n}",
  "sourcePath": "C:\\Users\\sintin\\Desktop\\Major_project\\e_commerce\\E_commerce_BL_Branch-test\\truffle\\contracts\\TinToken.sol",
  "compiler": {
    "name": "solc",
    "version": "0.8.18+commit.87f61d96.Emscripten.clang"
  },
  "schemaVersion": "3.4.4",
  "updatedAt": "2023-04-19T19:19:27.461Z",
  "networkType": "ethereum",
  "devdoc": {
    "events": {
      "Approval(address,address,uint256)": {
        "details": "Emitted when the allowance of a `spender` for an `owner` is set by a call to {approve}. `value` is the new allowance."
      },
      "Transfer(address,address,uint256)": {
        "details": "Emitted when `value` tokens are moved from one account (`from`) to another (`to`). Note that `value` may be zero."
      }
    },
    "kind": "dev",
    "methods": {
      "allowance(address,address)": {
        "details": "See {IERC20-allowance}."
      },
      "approve(address,uint256)": {
        "details": "See {IERC20-approve}. NOTE: If `amount` is the maximum `uint256`, the allowance is not updated on `transferFrom`. This is semantically equivalent to an infinite approval. Requirements: - `spender` cannot be the zero address."
      },
      "balanceOf(address)": {
        "details": "See {IERC20-balanceOf}."
      },
      "decimals()": {
        "details": "Returns the number of decimals used to get its user representation. For example, if `decimals` equals `2`, a balance of `505` tokens should be displayed to a user as `5.05` (`505 / 10 ** 2`). Tokens usually opt for a value of 18, imitating the relationship between Ether and Wei. This is the value {ERC20} uses, unless this function is overridden; NOTE: This information is only used for _display_ purposes: it in no way affects any of the arithmetic of the contract, including {IERC20-balanceOf} and {IERC20-transfer}."
      },
      "decreaseAllowance(address,uint256)": {
        "details": "Atomically decreases the allowance granted to `spender` by the caller. This is an alternative to {approve} that can be used as a mitigation for problems described in {IERC20-approve}. Emits an {Approval} event indicating the updated allowance. Requirements: - `spender` cannot be the zero address. - `spender` must have allowance for the caller of at least `subtractedValue`."
      },
      "increaseAllowance(address,uint256)": {
        "details": "Atomically increases the allowance granted to `spender` by the caller. This is an alternative to {approve} that can be used as a mitigation for problems described in {IERC20-approve}. Emits an {Approval} event indicating the updated allowance. Requirements: - `spender` cannot be the zero address."
      },
      "name()": {
        "details": "Returns the name of the token."
      },
      "symbol()": {
        "details": "Returns the symbol of the token, usually a shorter version of the name."
      },
      "totalSupply()": {
        "details": "See {IERC20-totalSupply}."
      },
      "transfer(address,uint256)": {
        "details": "See {IERC20-transfer}. Requirements: - `to` cannot be the zero address. - the caller must have a balance of at least `amount`."
      },
      "transferFrom(address,address,uint256)": {
        "details": "See {IERC20-transferFrom}. Emits an {Approval} event indicating the updated allowance. This is not required by the EIP. See the note at the beginning of {ERC20}. NOTE: Does not update the allowance if the current allowance is the maximum `uint256`. Requirements: - `from` and `to` cannot be the zero address. - `from` must have a balance of at least `amount`. - the caller must have allowance for ``from``'s tokens of at least `amount`."
      }
    },
    "version": 1
  },
  "userdoc": {
    "kind": "user",
    "methods": {},
    "version": 1
  }
}