{
  "contractName": "PaymentProcessor",
  "abi": [
    {
      "inputs": [
        {
          "internalType": "address payable",
          "name": "TinTokenAddress_",
          "type": "address"
        }
      ],
      "stateMutability": "nonpayable",
      "type": "constructor"
    },
    {
      "anonymous": false,
      "inputs": [
        {
          "indexed": false,
          "internalType": "address",
          "name": "payer",
          "type": "address"
        },
        {
          "indexed": false,
          "internalType": "uint256",
          "name": "amount",
          "type": "uint256"
        },
        {
          "indexed": false,
          "internalType": "uint256",
          "name": "paymentId",
          "type": "uint256"
        },
        {
          "indexed": false,
          "internalType": "uint256",
          "name": "date",
          "type": "uint256"
        }
      ],
      "name": "PaymentDone",
      "type": "event"
    },
    {
      "inputs": [],
      "name": "Tin",
      "outputs": [
        {
          "internalType": "contract TinToken",
          "name": "",
          "type": "address"
        }
      ],
      "stateMutability": "view",
      "type": "function",
      "constant": true
    },
    {
      "inputs": [],
      "name": "TinTokenAddress",
      "outputs": [
        {
          "internalType": "address payable",
          "name": "",
          "type": "address"
        }
      ],
      "stateMutability": "view",
      "type": "function",
      "constant": true
    },
    {
      "inputs": [
        {
          "internalType": "uint256",
          "name": "amount",
          "type": "uint256"
        },
        {
          "internalType": "uint256",
          "name": "paymendId",
          "type": "uint256"
        }
      ],
      "name": "pay",
      "outputs": [],
      "stateMutability": "nonpayable",
      "type": "function"
    }
  ],
  "bytecode": "0x608060405234801561001057600080fd5b506040516103cb3803806103cb8339818101604052810190610032919061011c565b80600160006101000a81548173ffffffffffffffffffffffffffffffffffffffff021916908373ffffffffffffffffffffffffffffffffffffffff160217905550806000806101000a81548173ffffffffffffffffffffffffffffffffffffffff021916908373ffffffffffffffffffffffffffffffffffffffff16021790555050610149565b600080fd5b600073ffffffffffffffffffffffffffffffffffffffff82169050919050565b60006100e9826100be565b9050919050565b6100f9816100de565b811461010457600080fd5b50565b600081519050610116816100f0565b92915050565b600060208284031215610132576101316100b9565b5b600061014084828501610107565b91505092915050565b610273806101586000396000f3fe608060405234801561001057600080fd5b50600436106100415760003560e01c806311ad78c01461004657806345323b8814610064578063ef48eee614610082575b600080fd5b61004e61009e565b60405161005b919061012d565b60405180910390f35b61006c6100c4565b60405161007991906101a7565b60405180910390f35b61009c600480360381019061009791906101fd565b6100e8565b005b600160009054906101000a900473ffffffffffffffffffffffffffffffffffffffff1681565b60008054906101000a900473ffffffffffffffffffffffffffffffffffffffff1681565b5050565b600073ffffffffffffffffffffffffffffffffffffffff82169050919050565b6000610117826100ec565b9050919050565b6101278161010c565b82525050565b6000602082019050610142600083018461011e565b92915050565b6000819050919050565b600061016d610168610163846100ec565b610148565b6100ec565b9050919050565b600061017f82610152565b9050919050565b600061019182610174565b9050919050565b6101a181610186565b82525050565b60006020820190506101bc6000830184610198565b92915050565b600080fd5b6000819050919050565b6101da816101c7565b81146101e557600080fd5b50565b6000813590506101f7816101d1565b92915050565b60008060408385031215610214576102136101c2565b5b6000610222858286016101e8565b9250506020610233858286016101e8565b915050925092905056fea264697066735822122054fecd5eee2d8f5dddc139d25bc7c36b678f37c39d5fb1a29906f6e24327a1ba64736f6c63430008120033",
  "immutableReferences": {},
  "source": "pragma solidity >=0.4.22 <0.9.0;\r\n\r\n\r\nimport './TinToken.sol';\r\n\r\ncontract PaymentProcessor {\r\n\r\nevent PaymentDone(address payer, uint amount, uint paymentId,uint date);\r\nTinToken public Tin ;\r\naddress payable  public TinTokenAddress;\r\n\r\nconstructor(address payable TinTokenAddress_ ) public {\r\n    TinTokenAddress = TinTokenAddress_;\r\n    Tin = TinToken(TinTokenAddress_);\r\n}\r\n\r\nfunction pay (uint amount, uint paymendId) external {\r\n    // Tin.makePayment(msg.sender, amount);\r\n    \r\n}\r\n}",
  "sourcePath": "C:\\Users\\sintin\\Desktop\\Major_project\\e_commerce\\react-box-master\\truffle\\contracts\\PaymentProcessor.sol",
  "compiler": {
    "name": "solc",
    "version": "0.8.18+commit.87f61d96.Emscripten.clang"
  },
  "schemaVersion": "3.4.4",
  "updatedAt": "2023-03-31T19:43:06.501Z",
  "networkType": "ethereum",
  "devdoc": {
    "kind": "dev",
    "methods": {},
    "version": 1
  },
  "userdoc": {
    "kind": "user",
    "methods": {},
    "version": 1
  }
}